:040000008FEF00F08E
:100018001680D8CF01F0E8CF02F0E0CF03F0FACF96
:1000280004F0FBCF05F0E9CF06F0EACF07F0E1CF07
:1000380008F0E2CF09F0D9CF0AF0DACF0BF0F3CF0E
:100048000CF0F4CF0DF0F6CF0EF0F7CF0FF0F8CF9D
:1000580010F0F5CF11F0F2A43AD01450010D010EB2
:10006800F324F66E080EF420F76E0800F5CF81FF32
:10007800050E1418D8A406D082948282000E146E3D
:10008800000E156E020E1418D8A40CD01350D8A464
:1000980009D01550D8A406D082928280000E146E22
:1000A800010E136E040E1418D8A40BD01550D8A442
:1000B80008D082908284010E156E000E136E000E19
:1000C800146E142A670ED76E6A0ED66EF29411C09B
:1000D800F5FF10C0F8FF0FC0F7FF0EC0F6FF0DC008
:1000E800F4FF0CC0F3FF0BC0DAFF0AC0D9FF09C048
:1000F800E2FF08C0E1FF07C0EAFF06C0E9FF05C04C
:10010800FBFF04C0FAFF03C0E0FF02C0E8FF01C024
:0A011800D8FF169010001EEF04F04F
:10080000003F065B4F666D7D077F6F000F0EC16E68
:10081000000E936E000E946ED59EF28AF294D59CD3
:10082000D596D590D582D584D59A670ED76E6A0EA7
:10083000D66ED58EF28EF28C8284FFD7660EF66E5F
:10084000080EF76E000EF86E0900F5CF15F0146A69
:10085000136A126A16901692000EF86E080EF76E62
:07086000000106EF04F001A6
:020000040020DA
:08000000FFFFFFFFFFFFFFFF00
:020000040030CA
:0E00000000051F1EFF8185FF0FC00FE00F409F
:00000001FF
