:0400000062EF00F0BB
:100018004E80D8CF01F0E8CF02F0E0CF03F0FACF5E
:1000280004F0FBCF05F0E9CF06F0EACF07F0E1CF07
:1000380008F0E2CF09F0D9CF0AF0DACF0BF0F3CF0E
:100048000CF0F4CF0DF0F6CF0EF0F7CF0FF0F8CF9D
:1000580010F0F5CF11F0F2A40DD02D2A010E2D6469
:1000680004D0010E2E6E000E2D6E670ED76E6A0E2E
:10007800D66EF29411C0F5FF10C0F8FF0FC0F7FF5D
:100088000EC0F6FF0DC0F4FF0CC0F3FF0BC0DAFF83
:100098000AC0D9FF09C0E2FF08C0E1FF07C0EAFFB4
:1000A80006C0E9FF05C0FBFF04C0FAFF03C0E0FF7C
:1000B80002C0E8FF01C0D8FF4E9010008AEF07F099
:100800000001000A006400E80310272020202020B7
:10081000414C41524D4520202020200044657370FA
:1008200065727461646F722020202020005665720A
:1008300073616F3A200020202020202000486F7232
:0F084000613A2000446174613A2000256900008C
:10085000220E0001746F000E0001756F9DD0250EF1
:1008600000017A19D8B409D01EC0D9FF1FC0DAFF21
:100870007AC0DFFF1E4A1F2A8FD0000E0001766F5C
:1008800020C0F6FF21C0F7FF204A212A0800F5CF3B
:100890007AF000017A51000AD8B48BD0640AD8B437
:1008A00003D00D0AD8A478D074C0D9FF75C0DAFF80
:1008B000DECF78F0DDCF79F0020E00017427000E54
:1008C0007523000179AF08D0030E000176130001F3
:1008D000786D791FD8B0792B010E00017A6F050E63
:1008E00000017A19D8B416D000017A51020D010E18
:1008F000F324F66E080EF420F76E0900F55000019F
:10090000785D0900F55000017959D8A003D00001A5
:100910007A2BE5D776C024F0030E2416D8B408D07D
:100920001EC0D9FF1FC0DAFF2D0EDF6E1E4A1F2A20
:100930007AC077F02BD000017751020D010EF3241D
:10094000F66E080EF420F76E0900F5CF14F00A00D9
:10095000F5CF15F078C012F079C013F01AEC08F05A
:1009600012C019F013C01AF0000E1C6E0A0E1B6E96
:100970006CEC08F01950300F00017A6F1EC0D9FFDF
:100980001FC0DAFF7AC0DFFF1E4A1F2A0001770767
:1009900000017729D8A4CFD720C0F6FF21C0F7FFE8
:1009A000204A212A0800F5CF7AF000017A51D8A414
:1009B00056D71EC0D9FF1FC0DAFF000EDF6E12002F
:1009C000276E2704D8A491D0282A020E28648DD03F
:1009D000000E286E8AD0000E43EC08F01C0E0001B9
:1009E0007F6F080E0001806FBDEC07F0400E43ECF6
:1009F00008F02D0E00017F6F080E0001806FBDEC26
:100A000007F0480E00017F6F000E0001806FBDEC03
:100A100007F01200000E43EC08F03D0E00017F6F5E
:100A2000080E0001806FBDEC07F0600E00017F6FC3
:100A3000000E0001806FBDEC07F0400E43EC08F0A3
:100A4000440E00017F6F080E0001806FBDEC07F0BF
:100A5000690E00017F6F000E0001806FBDEC07F092
:100A600072C025F073C026F002EC09F025C07FF0BB
:100A700026C080F0BDEC07F0E8EC08F02C50D8B4AC
:100A800012008380292A050E29641200000E296EA7
:100A9000000E2C6E8390000E476E1200000E43EC89
:100AA00008F00B0E00017F6F080E0001806FBDEC97
:100AB00007F0400E43EC08F0370E00017F6F080E80
:100AC0000001806FBDEC07F03E0E00017F6F000E4D
:100AD0000001806FBDEC07F0360E00017F6F080E3D
:100AE0000001806FBDEC07F012002850000AD8B456
:100AF00072D7010AD8B48ED7030AD8A41200CED771
:100B00000F0EC16E000E936E000E956E010E946E68
:100B10001F0EAF6E900EAB6E200EAC6E949C948E3A
:100B20009E9A9F9A9D8AF28C320E0001606F330E5E
:100B30000001616F3A0E0001626F350E0001636FB4
:100B4000390E0001646F3A0E0001656F350E000129
:100B5000666F300E0001676F000E0001686F330E84
:100B60000001696F310E00016A6F2F0E00016B6F7B
:100B7000310E00016C6F320E00016D6F2F0E0001FF
:100B80006E6F000E00016F6F070E0001736FE20EB3
:100B9000726F1F0E0001706F0B0E0001716F300E2F
:100BA0003E6E300E3F6E3A0E406E300E416E310E8C
:100BB000426E000E436ED59EF28AF294D59CD59675
:100BC000D580D592D584D59A670ED76E6A0ED66E2B
:100BD000D58EF28EF28C15EC09F0000E82B0010E6B
:100BE0000001816F000181510001D8B411D0B40E11
:100BF00024EC09F0010EE0EC04F005D0000E82B008
:100C0000010E0001816F000181510001D8A4F6D7C7
:100C10002E50D8B407D0000EE0EC04F019EC06F02A
:100C2000000E2E6E020E2818D8A4D7D703EC07F0BA
:100C3000D4D70001672B390E000167651200300E12
:100C40000001676F0001662B350E0001666512001A
:100C5000300E0001666F0001642B010E476E390EE5
:100C6000000164651200300E0001646F0001632B07
:100C7000350E000163651200300E0001636F000144
:100C8000612B390E0001616505D0300E0001616FE6
:100C90000001602B320E00016019D8A41200330E3F
:100CA000000161651200300E0001606F300E00011E
:100CB000616F00016A2B0001702B390E00016A651B
:100CC00005D0000E00016A6F0001692BFF0E1C6E3B
:100CD000FF0E1D6E000171511E6E1F6A1C501E26F4
:100CE0001D501F22820E1E24D96E000E1F20DA6EA8
:100CF00000017051DE5CD8B01200310E00016A6F45
:100D0000300E0001696F0001712B00016D2B390E4F
:100D100000016D6505D0300E00016D6F00016C2B78
:100D20000B0E000171651200310E00016D6F300E67
:100D300000016C6F010E0001716F0001724B732B8B
:100D400072C018F073C019F0ECEC07F00009D8B4C9
:100D500004D01D0E0001836F12001C0E0001836F72
:100D60001200176EF00E8116F00E9316939C939A54
:100D700093988A9C8A9A8A9845EC09F0300EACECDC
:100D800008F0050E24EC09F0300EACEC08F0010E72
:100D900024EC09F0320EACEC08F0CBEC08F00009C2
:100DA000D8A4FBD7CBEC08F00009D8A4FBD7175088
:100DB000ACEC08F0CBEC08F00009D8A4FBD7080E87
:100DC000ACEC08F0CBEC08F00009D8A4FBD70F0E70
:100DD000ACEC08F0CBEC08F00009D8A4FBD7010E6E
:100DE000ACEC08F0CBEC08F00009D8A4FBD7040E5B
:100DF000ACEC08F0CBEC08F00009D8A4FBD7800ECF
:100E000043EC08F01200000E82B2010E2B6E000EB1
:100E100082B4010E2A6E2B50D8B420D0B40E24EC2C
:100E200009F03F2A390E3F6403D0300E3F6E3E2A50
:100E3000320E3E18D8A407D0330E3F6404D0300ED3
:100E40003F6E300E3E6E000EE0EC04F004D0000E5B
:100E500082B2010E2B6E2B50D8A4F9D72A50D8B4E9
:100E60001200B40E24EC09F0422A390E426403D079
:100E7000300E426E412A350E4118D8A407D0390EE3
:100E8000426404D0300E426E300E416E000EE0EC33
:100E900004F004D0000E82B4010E2A6E2A50D8B499
:100EA0001200F8D7000E176E13AE06D0126C131E88
:100EB000D8B0132A010E176E15AE04D0146C151E8F
:100EC000D8B0152A14501510D8B418D0010E166ECB
:100ED00004D0D89014361536162A15AEFAD7145009
:100EE000125C15501358D8A004D01450125E15503F
:100EF000135AD89015321432162EF1D71750D8B491
:100F000004D0126C131ED8B0132A12C012F013C0F2
:100F100013F012007E0EF66E120EF76E000EF86ED3
:100F200000EE82F010EE0CF00900F5CFEEFFE55078
:100F3000E150FAE19A0EF66E120EF76E000EF86EA0
:100F400000EE47F010EE07F00900F5CFEEFFE55098
:100F5000E150FAE100EE60F0140EEE6AE806FDE101
:100F600000EE28F01F0EEE6AE806FDE14E904E926C
:100F7000000EF86E000180EF05F01AD0CBEC08F0FF
:100F80000009D8A4FBD77FC0F6FF80C0F7FFF86A3E
:100F9000070EF76403D00800F55005D0F6CFE9FF3F
:100FA000F7CFEAFFEF508DEC08F000017F4B802B6C
:100FB0007FC0F6FF80C0F7FFF86A070EF76403D022
:100FC0000800F55005D0F6CFE9FFF7CFEAFFEF5064
:100FD0000009D8B41200D2D7030E18141A6E000EEE
:100FE00019141B6E1A501B10D8A422D018C012F06E
:100FF00019C013F0000E156E640E146E52EC07F05B
:1010000012501310D8B402D0010E120018C012F002
:1010100019C013F0010E156E900E146E52EC07F00D
:1010200012501310D8B402D0000E1200010E12009C
:10103000000E1200000E186E000E176E14501510E0
:10104000D8B41CD0010E166E04D0D89014361536C4
:10105000162A15AEFAD7D890173618361450125CE7
:1010600015501358D8A005D01450125E1550135ABD
:101070001780D89015321432162EEDD717C012F003
:1010800018C013F01200166EF00E9316F00E8116B3
:101090001650136E146A138E040E156E1434143227
:1010A0001332152EFBD713500F0B81128A9C8A9A8C
:1010B00049EC09F08A8849EC09F08A98F00E81160B
:1010C00016500F0B811249EC09F08A8849EC09F09F
:1010D0008A980F0E931212001B501C10D8B418D00F
:1010E000010E1D6E04D0D8901B361C361D2A1CAE76
:1010F000FAD71B50195C1C501A58D8A004D01B50AA
:10110000195E1C501A5AD8901C321B321D2EF1D772
:1011100019C019F01AC01AF01200136EF00E9316CF
:10112000F00E811613380F0B0F0B81128A8A8A9CDE
:1011300049EC09F08A8849EC09F08A98F00E81168A
:1011400013500F0B811249EC09F08A8849EC09F021
:101150008A980F0E93121200136EF00E9316F00E73
:10116000811613380F0B0F0B81128A9C8A9A49EC57
:1011700009F08A8849EC09F08A98F00E811613501C
:101180000F0B811249EC09F08A8849EC09F08A9822
:101190000F0E931212008A8C8A9A49EC09F08A8801
:1011A00049EC09F081A60AD08A9849EC09F08A88AE
:1011B00049EC09F08A988A9C010E12008A9849EC41
:1011C00009F08A8849EC09F08A988A9C000E12007E
:1011D0004750D8B412003E5000016019D8A4120044
:1011E0003F5000016119D8A4120041500001631959
:1011F000D8A41200425000016419D8A41200010EB4
:101200002C6E12007B0E1E6E000E1F6E4B0E206E9B
:10121000080E216E25C022F026C023F028EC04F031
:101220007B0E256E000E266E1200280EB1EC06F025
:10123000CBEC08F00009D8A4FBD7060EACEC08F004
:101240000C0EACEC08F01200136E0D0E126EFC0EBC
:10125000E82EFED7122EFCD7132EF7D71200126EEF
:10126000C80E00D0E82EFDD7122EFAD71200126E4B
:10127000030EE82EFED700F0122EFAD712001F1C24
:101280001F1E1F1E1F1F1E1F1E1FB40E2FEC09F056
:101290001200780E37EC09F012000130312E303098
:0112A000004D
:020000040020DA
:08000000FFFFFFFFFFFFFFFF00
:020000040030CA
:0E00000000051F1EFF8185FF0FC00FE00F409F
:00000001FF
