:040000007AEF00F0A3
:100018004E80D8CF01F0E8CF02F0E0CF03F0FACF5E
:1000280004F0FBCF05F0E9CF06F0EACF07F0E1CF07
:1000380008F0E2CF09F0D9CF0AF0DACF0BF0F3CF0E
:100048000CF0F4CF0DF0F6CF0EF0F7CF0FF0F8CF9D
:1000580010F0F5CF11F0F2A40DD02C2A010E2C646B
:1000680004D0010E2D6E000E2C6E670ED76E6A0E30
:10007800D66EF2949EAA16D0070E2E600ED09EAAB7
:10008800FED72E50010D370EF324D96E000EF42042
:10009800DA6EAECFDFFF2E2A05D09E9A000E2E6EA6
:1000A800010E2F6E11C0F5FF10C0F8FF0FC0F7FF4B
:1000B8000EC0F6FF0DC0F4FF0CC0F3FF0BC0DAFF53
:1000C8000AC0D9FF09C0E2FF08C0E1FF07C0EAFF84
:1000D80006C0E9FF05C0FBFF04C0FAFF03C0E0FF4C
:1000E80002C0E8FF01C0D8FF4E901000E6EF09F00B
:100800000001000A006400E80310272020202020B7
:10081000414C41524D4520202020200044657370FA
:1008200065727461646F722020202020005665720A
:1008300073616F3A200020202020202000486F7232
:0F084000613A2000446174613A2000256900008C
:100850003BD137C030F038C031F060D049C032F001
:100860004CC033F059D060C044F061C045F0440E34
:10087000186E000E196E64EC08F01850326E63C0EA
:1008800044F064C045F0440E186E000E196E64EC1E
:1008900008F01850336E66C044F067C045F0440E4F
:1008A000186E000E196E64EC08F018501BD069C069
:1008B00044F06AC045F0440E186E000E196E64ECE8
:1008C00008F01850326E6CC044F06DC045F0440E14
:1008D000186E000E196E64EC08F01850336E0001AB
:1008E0007251300F346EF7D03EC044F03FC045F037
:1008F000440E186E000E196E64EC08F01850326E3B
:1009000041C044F042C045F0440E186E000E196E0E
:1009100064EC08F01850336E3468DDD03850000AAB
:10092000D8B49CD7010AD8B49ED7030AD8B4BFD78D
:10093000010AD8B4D9D7CFD0300E186E000E196E78
:10094000370E1A6E000E1B6E370E126E000E136EEF
:1009500091EC0BF012C01CF013C01DF033EC0BF047
:10096000A5D039C049F03AC04CF0B5D039C012F02A
:10097000136A000E156E0A0E146E6CEC09F012501C
:10098000300F0001696F39C012F0136A000E156E46
:100990000A0E146EAEEC09F01250300F00016A6FAF
:1009A0003AC012F0136A000E156E0A0E146E6CEC4B
:1009B00009F01250300F00016C6F3AC012F0136A48
:1009C000000E156E0A0E146EAEEC09F039D0D00E82
:1009D0003B240001726F0001736B070E73237BD001
:1009E00039C012F0136A000E156E0A0E146E6CEC0C
:1009F00009F01250300F0001696F39C012F0136A0C
:100A0000000E156E0A0E146EAEEC09F01250300F87
:100A100000016A6F3AC012F0136A000E156E0A0EDA
:100A2000146E6CEC09F01250300F00016C6F3AC07C
:100A300012F0136A000E156E0A0E146EAEEC09F079
:100A40001250300F00016D6FC2D739C012F0136A17
:100A5000000E156E0A0E146E6CEC09F01250300F79
:100A60003E6E39C012F0136A000E156E0A0E146E37
:100A7000AEEC09F01250300F3F6E3AC012F0136A1C
:100A8000000E156E0A0E146E6CEC09F01250300F49
:100A9000416E3AC012F0136A000E156E0A0E146E03
:100AA000AEEC09F01250300F426E15D03850000AEB
:100AB000D8B457D7010AD8B459D7030AD8B490D7B5
:100AC000010AD8B4C2D707D03750010AD8B4C1D66A
:100AD000030AD8B431D701EC0CF01200220E000149
:100AE000746F000E0001756F9DD0250E00017A19FC
:100AF000D8B409D01EC0D9FF1FC0DAFF7AC0DFFF0B
:100B00001E4A1F2A8FD0000E0001766F20C0F6FF0C
:100B100021C0F7FF204A212A0800F5CF7AF0000112
:100B20007A51000AD8B48BD0640AD8B403D00D0A25
:100B3000D8A478D074C0D9FF75C0DAFFDECF78F0C2
:100B4000DDCF79F0020E00017427000E752300013D
:100B500079AF08D0030E000176130001786D791F7C
:100B6000D8B0792B010E00017A6F050E00017A19B9
:100B7000D8B416D000017A51020D010EF324F66E9E
:100B8000080EF420F76E0900F5500001785D0900A9
:100B9000F55000017959D8A003D000017A2BE5D790
:100BA00076C024F0030E2416D8B408D01EC0D9FF96
:100BB0001FC0DAFF2D0EDF6E1E4A1F2A7AC077F0A3
:100BC0002BD000017751020D010EF324F66E080EB2
:100BD000F420F76E0900F5CF14F00A00F5CF15F0F8
:100BE00078C012F079C013F076EC0AF012C019F058
:100BF00013C01AF0000E1C6E0A0E1B6E12EC0BF0E6
:100C00001950300F00017A6F1EC0D9FF1FC0DAFFE4
:100C10007AC0DFFF1E4A1F2A0001770700017729EB
:100C2000D8A4CFD720C0F6FF21C0F7FF204A212A41
:100C30000800F5CF7AF000017A51D8A456D71EC02B
:100C4000D9FF1FC0DAFF000EDF6E12000001816FB6
:100C500000018105D8A491D0272A020E27648DD0E7
:100C6000000E276E8AD0000E9FEC0AF01C0E0001C9
:100C70007F6F080E0001806F19EC0AF0400E9FECA8
:100C80000AF02D0E00017F6F080E0001806F19EC35
:100C90000AF0480E00017F6F000E0001806F19EC12
:100CA0000AF01200000E9FEC0AF03D0E00017F6F6B
:100CB000080E0001806F19EC0AF0600E00017F6FD2
:100CC000000E0001806F19EC0AF0400E9FEC0AF054
:100CD000440E00017F6F080E0001806F19EC0AF0CE
:100CE000690E00017F6F000E0001806F19EC0AF0A1
:100CF00072C025F073C026F016EC0CF025C07FF012
:100D000026C080F019EC0AF0E7EC0BF02B50D8B4B9
:100D100012008380282A050E28641200000E286E17
:100D2000000E2B6E8390000E476E1200000E9FEC9B
:100D30000AF00B0E00017F6F080E0001806F19ECA6
:100D40000AF0400E9FEC0AF0370E00017F6F080E8C
:100D50000001806F19EC0AF03E0E00017F6F000E5B
:100D60000001806F19EC0AF0360E00017F6F080E4B
:100D70000001806F19EC0AF012002750000AD8B465
:100D800072D7010AD8B48ED7030AD8A41200CED7DE
:100D90000F0EC16E000E936E000E956E010E946ED6
:100DA0001F0EAF6E900EAB6E200EAC6E949C948EA8
:100DB0009E9A9F9A9D8AF28C320E0001606F330ECC
:100DC0000001616F3A0E0001626F350E0001636F22
:100DD000390E0001646F3A0E0001656F350E000197
:100DE000666F300E0001676F000E0001686F330EF2
:100DF0000001696F310E00016A6F2F0E00016B6FE9
:100E0000310E00016C6F320E00016D6F2F0E00016C
:100E10006E6F000E00016F6F070E0001736FE20E20
:100E2000726F1F0E0001706F0B0E0001716F300E9C
:100E30003E6E300E3F6E3A0E406E300E416E310EF9
:100E4000426E000E436ED59EF28AF294D59CD596E2
:100E5000D580D592D584D59A670ED76E6A0ED66E98
:100E6000D58EF28EF28C5AEC0CF0EFEC0AF0000EFC
:100E700082B0010E0001826F000182510001D8B4DE
:100E800011D0B40E69EC0CF0010E26EC06F005D082
:100E9000000E82B0010E0001826F0001825100013C
:100EA000D8A4F6D72D50D8B407D0000E26EC06F003
:100EB00063EC07F0000E2D6E020E2718D8A4D5D7CC
:100EC0001DEC09F0D2D70001672B390E00016765D0
:100ED0001200300E0001676F0001662B350E000115
:100EE00066651200300E0001666F0001642B010E72
:100EF000476E390E000164651200300E0001646F08
:100F00000001632B350E000163651200300E0001F5
:100F1000636F0001612B390E0001616505D0300E51
:100F20000001616F0001602B320E00016019D8A42E
:100F30001200330E000161651200300E0001606F77
:100F4000300E0001616F00016A2B0001702B390E19
:100F500000016A6505D0000E00016A6F0001692B6F
:100F6000FF0E1C6EFF0E1D6E000171511E6E1F6A7A
:100F70001C501E261D501F22830E1E24D96E000EEB
:100F80001F20DA6E00017051DE5CD8B01200310E05
:100F900000016A6F300E0001696F0001712B0001C2
:100FA0006D2B390E00016D6505D0300E00016D6F9F
:100FB00000016C2B0B0E000171651200310E000157
:100FC0006D6F300E00016C6F010E0001716F00013A
:100FD000724B732B72C018F073C019F048EC0AF012
:100FE0000009D8B404D01D0E0001846F12001C0E3D
:100FF0000001846F12001D681E6814501510D8A4DB
:1010000005D01D1C126E1E1C136E1200000E1A6EEF
:1010100012C0D9FF13C0DAFFDF50166E16501B6ED8
:101020001C6A124A132A070E1A6401D028D0010E36
:101030001B14166E000E1C14176E010E1D14186E74
:10104000000E1E14196E1650181A1750191A18503F
:101050001910D8B40CD0D8901E30176E1D30166EF3
:10106000080E16181D6E840E17181E6E03D0D89029
:101070001E321D321A2AD8901C321B32D4D71406C5
:10108000D8A0150614501510D8A4C0D71D1E1E1EBA
:101090001DC01BF01EC01CF01BC016F01CC017F0BA
:1010A00017C016F0176A16501DC018F01EC019F0B0
:1010B00018C019F0186A18101D6E19501E6E1DC048
:1010C00012F01EC013F0120002D0184A192A18C0DC
:1010D000D9FF19C0DAFF200EDE18D8B4F6D718C031
:1010E000D9FF19C0DAFF090EDE18D8B4EED7000E0A
:1010F0001E6E000E1D6E000E1C6E18C0D9FF19C0AA
:10110000DAFF2D0EDE18D8A402D01C2A24D018C075
:10111000D9FF19C0DAFF2B0EDE18D8A41ED01BD0C1
:101120001DC012F01EC013F0000E156E0A0E146ED4
:1011300029EC0CF018C0D9FF19C0DAFFDF501A6E85
:101140001B6A12501A2613501B22D00E1A241D6E31
:10115000FF0E1B201E6E184A192A18C0D9FF19C08D
:10116000DAFFDF503CEC0CF0D8B0DAD71C50D8B422
:101170000DD01DC01AF01EC01BF01A1E1B1E1A4AED
:101180001B2A1AC018F01BC019F012001DC018F05D
:101190001EC019F01200176EF00E8116F00E931695
:1011A000939C939A93988A9C8A9A8A988AEC0CF0DA
:1011B000300E72EC0BF0050E69EC0CF0300E72EC98
:1011C0000BF0010E69EC0CF0320E72EC0BF0AEEC91
:1011D0000BF00009D8A4FBD7AEEC0BF00009D8A4A3
:1011E000FBD7175072EC0BF0AEEC0BF00009D8A453
:1011F000FBD7080E72EC0BF0AEEC0BF00009D8A494
:10120000FBD70F0E72EC0BF0AEEC0BF00009D8A47C
:10121000FBD7010E72EC0BF0AEEC0BF00009D8A47A
:10122000FBD7040E72EC0BF0AEEC0BF00009D8A467
:10123000FBD7800E9FEC0AF01200000E82B2010E66
:101240002A6E000E82B4010E296E2A50D8B420D026
:10125000B40E69EC0CF03F2A390E3F6403D0300E17
:101260003F6E3E2A320E3E18D8A407D0330E3F649C
:1012700004D0300E3F6E300E3E6E000E26EC06F0AF
:1012800004D0000E82B2010E2A6E2A50D8A4F9D7DB
:101290002950D8B41200B40E69EC0CF0422A390E71
:1012A000426403D0300E426E412A350E4118D8A454
:1012B00007D0390E426404D0300E426E300E416EBB
:1012C000000E26EC06F004D0000E82B4010E296E4A
:1012D0002950D8B41200F8D7000E176E15AE06D0FC
:1012E000146C151ED8B0152A010E176E13AE06D059
:1012F000126C131ED8B0132A010E171A000E196EA5
:10130000000E186E14501510D8B41CD0010E166EB5
:1013100004D0D89014361536162A15AEFAD7D890C0
:10132000183619361450125C15501358D8A005D031
:101330001450125E1550135A1880D890153214327A
:10134000162EEDD71750D8B404D0186C191ED8B08B
:10135000192A18C012F019C013F01200000E176EEF
:1013600013AE06D0126C131ED8B0132A010E176EDE
:1013700015AE04D0146C151ED8B0152A14501510D3
:10138000D8B418D0010E166E04D0D8901436153685
:10139000162A15AEFAD71450125C15501358D8A05F
:1013A00004D01450125E1550135AD89015321432CE
:1013B000162EF1D71750D8B404D0126C131ED8B023
:1013C000132A12C012F013C013F01200080EF66EAA
:1013D000190EF76E000EF86E00EE83F010EE0CF0B2
:1013E0000900F5CFEEFFE550E150FAE1240EF66E6C
:1013F000190EF76E000EF86E00EE47F010EE07F0D3
:101400000900F5CFEEFFE550E150FAE100EE60F0A3
:10141000140EEE6AE806FDE100EE27F0200EEE6AFB
:10142000E806FDE14E904E92000EF86E0001C8EF06
:1014300006F01AD0AEEC0BF00009D8A4FBD77FC0A1
:10144000F6FF80C0F7FFF86A070EF76403D00800C4
:10145000F55005D0F6CFE1FFF7CFE2FFE75053ECB0
:101460000BF000017F4B802B7FC0F6FF80C0F7FFA1
:10147000F86A070EF76403D00800F55005D0F6CFE0
:10148000E1FFF7CFE2FFE7500009D8B41200D2D74E
:10149000030E18141A6E000E19141B6E1A501B102E
:1014A000D8A422D018C012F019C013F0000E156E87
:1014B000640E146EAEEC09F012501310D8B402D0C2
:1014C000010E120018C012F019C013F0010E156EB3
:1014D000900E146EAEEC09F012501310D8B402D076
:1014E000000E1200010E1200000E1200000E186E07
:1014F000000E176E14501510D8B41CD0010E166EC5
:1015000004D0D89014361536162A15AEFAD7D890CE
:10151000173618361450125C15501358D8A005D041
:101520001450125E1550135A1780D8901532143289
:10153000162EEDD717C012F018C013F01200166E59
:10154000F00E9316F00E81161650136E146A138E59
:10155000040E156E143414321332152EFBD71350AB
:101560000F0B81128A9C8A9A8EEC0CF08A888EEC82
:101570000CF08A98F00E811616500F0B81128EEC2B
:101580000CF08A888EEC0CF08A980F0E93121200E1
:10159000000E216E370E126E000E136E000E156EC9
:1015A000050E146EFBEC07F012C022F013C023F0FE
:1015B00023501F6E22C020F01F503C18D8A406D024
:1015C00020503D18D8A402D0010E216E2104D8A4C9
:1015D00003D0040E2F6E1200050E2F6E120011D0D4
:1015E000C8EC0AF0120028EC04F01200CBEC0BF06F
:1015F0001200050E4BEC0CF01200150E4BEC0CF02B
:1016000012002F50010AD8B4EBD7030AD8B4EBD795
:10161000010AD8B4EBD7070AD8B4EBD7010AD8A48B
:101620001200EBD71B501C10D8B418D0010E1D6E41
:1016300004D0D8901B361C361D2A1CAEFAD71B507E
:10164000195C1C501A58D8A004D01B50195E1C50AD
:101650001A5AD8901C321B321D2EF1D719C019F01E
:101660001AC01AF012001AC020F01BC021F018C0D6
:101670001EF019C01FF00ED020C0D9FF21C0DAFF24
:101680001EC0E1FF1FC0E2FFDFCFE7FF204A212A93
:101690001E4A1F2A1C06D8A01D061C28EDE11D2885
:1016A000D8B41200E9D7136EF00E9316F00E81161F
:1016B00013380F0B0F0B81128A8A8A9C8EEC0CF068
:1016C0008A888EEC0CF08A98F00E811613500F0B5E
:1016D00081128EEC0CF08A888EEC0CF08A980F0E3A
:1016E00093121200136EF00E9316F00E811613383B
:1016F0000F0B0F0B81128A9C8A9A8EEC0CF08A8851
:101700008EEC0CF08A98F00E811613500F0B81129C
:101710008EEC0CF08A888EEC0CF08A980F0E9312E7
:10172000120012C016F013C017F002D0164A172A82
:1017300016C0D9FF17C0DAFFDF50D8A4F7D712C000
:1017400014F013C015F0141E151E144A152A165055
:101750001424126E17501520136E12008A8C8A9A68
:101760008EEC0CF08A888EEC0CF081A60AD08A9858
:101770008EEC0CF08A888EEC0CF08A988A9C010E14
:1017800012008A988EEC0CF08A888EEC0CF08A9805
:101790008A9C000E1200000E136E000E126E13BE15
:1017A00006D0135011E1070E125CD8B00DD09EA8E0
:1017B000FED7300E1224D96E000E1320DA6EDF50E1
:1017C000AD6E124A132AEBD7000E2F6E120047504F
:1017D000D8B412003E5000016019D8A412003F5046
:1017E00000016119D8A41200415000016319D8A466
:1017F0001200425000016419D8A41200010E2B6E91
:101800001200300E126E000E136E000E156E050ED5
:10181000146EFBEC07F012C01FF013C020F0205034
:10182000356E1FC036F0030E2F6E12007B0E1E6E3B
:10183000000E1F6E4B0E206E080E216E25C022F08A
:1018400026C023F06EEC05F07B0E256E000E266E92
:10185000120012501402F3CF16F0F4CF17F012500A
:101860001502F350172613501402F350172616C012
:1018700012F017C013F01200146E000E136E3A0E21
:10188000146005D02F0E146402D0010E136E13C025
:1018900012F012301200126E9EA8FED712C0ADFFD9
:1018A000050E1218D8A403D0020E2F6E1200000EDF
:1018B0002F6E1200280ECBEC08F0AEEC0BF00009F6
:1018C000D8A4FBD7060E72EC0BF00C0E72EC0BF0EA
:1018D0001200136E0D0E126EFC0EE82EFED7122EA5
:1018E000FCD7132EF7D71200126EC80E00D0E82EC8
:1018F000FDD7122EFAD71200126E030EE82EFED775
:1019000000F0122EFAD712001F1C1F1E1F1E1F1FD1
:101910001E1F1E1FB40E74EC0CF01200780E7CEC2F
:0B1920000CF012000130312E303000BE
:020000040020DA
:08000000FFFFFFFFFFFFFFFF00
:020000040030CA
:0E00000000051F1EFF8185FF0FC00FE00F409F
:00000001FF
