:040000007BEF00F0A2
:100018004980D8CF06F0E8CF07F0E0CF08F0FACF54
:1000280009F0FBCF0AF0E9CF0BF0EACF0CF0E1CFF3
:100038000DF0E2CF0EF0D9CF0FF0DACF10F0F3CFFA
:1000480011F0F4CF12F0F6CF13F0F7CF14F0F8CF89
:1000580015F0F5CF16F0F2A40DD03A2A010E3A6445
:1000680004D0010E3B6E000E3A6E670ED76E6A0E14
:10007800D66EF2949EAA17D09EAAFED73C50010DC8
:100088003E0EF324D96E000EF420DA6EAECFDFFFF9
:100098003C2A060E3C6407D01EEC0DF09E9A000E1A
:1000A8003C6E010E3D6E16C0F5FF15C0F8FF14C07A
:1000B800F7FF13C0F6FF12C0F4FF11C0F3FF10C022
:1000C800DAFF0FC0D9FF0EC0E2FF0DC0E1FF0CC080
:1000D800EAFF0BC0E9FF0AC0FBFF09C0FAFF08C02E
:1000E800E0FF07C0E8FF06C0D8FF49901000C0EF46
:0200F8000AF00C
:100800000001000A006400E80310272020202020B7
:10081000414C41524D4520202020200044657370FA
:1008200065727461646F7220202020200025692584
:10083000693A256925693A25692569002569256987
:100840002F256925692F0056657273616F3A200064
:1008500020202020202000486F72613A200044614F
:1008600074613A20000049D13EC07CF03FC07DF069
:1008700068D0A6C07EF0A9C07FF060D060C045F00F
:1008800061C046F0450E1D6E000E1E6EADEC08F008
:100890001D5000017E6F63C045F064C046F0450EF8
:1008A0001D6E000E1E6EADEC08F01D5000017F6F36
:1008B00066C045F067C046F0450E1D6E000E1E6E08
:1008C000ADEC08F01D501DD069C045F06AC046F07F
:1008D000450E1D6E000E1E6EADEC08F01D500001A1
:1008E0007E6F6CC045F06DC046F0450E1D6E000E6B
:1008F0001E6EADEC08F01D5000017F6F00017251BB
:10090000300F0001806F00D12FC045F030C046F09D
:10091000450E1D6E000E1E6EADEC08F01D50000160
:100920007E6F32C045F033C046F0450E1D6E000E9E
:100930001E6EADEC08F01D5000017F6F0001806954
:10094000E3D03F50000AD8B494D7010AD8B496D760
:10095000030AD8B4B9D7010AD8B4D6D7D5D07C0EFB
:100960001D6E000E1E6E3E0E1F6E000E206E3E0EA1
:10097000176E000E186E09EC0CF017C021F018C0AD
:1009800022F0ABEC0BF0310E3F18D8A4A8D012EC3B
:100990000DF0A5D04050300F0001A66F4150300F30
:1009A0000001A96FB1D012EC0DF040C017F0186A29
:1009B000000E1A6E0A0E196EB5EC09F01750000100
:1009C000696F40C017F0186A000E1A6E0A0E196E91
:1009D000F7EC09F0175000016A6F41C017F0186A70
:1009E000000E1A6E0A0E196EB5EC09F017500001D0
:1009F0006C6F41C017F0186A000E1A6E0A0E196E5D
:100A0000F7EC09F0175000016D6FD00E4224000181
:100A1000726F0001736B070E732376D040C017F01E
:100A2000186A000E1A6E0A0E196EB5EC09F017500E
:100A30000001606F40C017F0186A000E1A6E0A0EAF
:100A4000196EF7EC09F017500001616F41C017F003
:100A5000186A000E1A6E0A0E196EB5EC09F01750DE
:100A60000001636F41C017F0186A000E1A6E0A0E7B
:100A7000196EF7EC09F017500001646F45D040C0C3
:100A800017F0186A000E1A6E0A0E196EB5EC09F00E
:100A900017502F6E40C017F0186A000E1A6E0A0E1B
:100AA000196EF7EC09F01750306E41C017F0186A54
:100AB000000E1A6E0A0E196EB5EC09F01750326E60
:100AC00041C017F0186A000E1A6E0A0E196EF7EC84
:100AD00009F01750336E000E87EC05F015D03F502B
:100AE000000AD8B457D7010AD8B45DD7030AD8B4DE
:100AF00095D7010AD8B4C3D707D03E50010AD8B45D
:100B0000B3D6030AD8B42BD790EC0CF01200000136
:100B1000976F00019705D8A4DDD0352A020E356401
:100B2000D9D0000E356ED6D0000E15EC0BF01C0E91
:100B30002D6E080E2E6E92EC0AF0400E15EC0BF0A6
:100B4000470E2D6E080E2E6E92EC0AF0A50E2D6E3D
:100B5000000E2E6E92EC0AF01200000E15EC0BF057
:100B6000570E2D6E080E2E6E92EC0AF0740E0001D8
:100B7000836F000E0001846F2D0E0001856F080E3B
:100B80000001866F60C087F00001886B61C089F04A
:100B900000018A6B63C08BF000018C6B64C08DF028
:100BA00000018E6B66C08FF00001906B67C091F002
:100BB0000001926B75EC06F0740E2D6E000E2E6E19
:100BC00092EC0AF0400E15EC0BF05E0E2D6E080E46
:100BD0002E6E92EC0AF0740E0001836F000E00017D
:100BE000846F3C0E0001856F080E0001866F69C09E
:100BF00087F00001886B6AC089F000018A6B6CC0C5
:100C00008BF000018C6B6DC08DF000018E6B75EC6C
:100C100006F0740E2D6E000E2E6E92EC0AF072C06D
:100C20002BF073C02CF079EC0CF02BC02DF02CC005
:100C30002EF092EC0AF05FEC0CF03950D8B41200B0
:100C40008380362A050E36641200000E366E000EC2
:100C5000396E8390000E486E1200000E15EC0BF0FA
:100C60000B0E2D6E080E2E6E92EC0AF0400E15EC57
:100C70000BF0510E2D6E080E2E6E92EC0AF0740ED3
:100C80000001836F000E0001846F320E0001856F3A
:100C9000080E0001866F2FC087F00001886B30C0FE
:100CA00089F000018A6B32C08BF000018C6B33C07D
:100CB0008DF000018E6B75EC06F0740E2D6E000E3B
:100CC0002E6E92EC0AF0500E2D6E080E2E6E92ECE7
:100CD0000AF012003550000AD8B426D7010AD8B459
:100CE0003CD7030AD8A41200B8D7870E246E000E92
:100CF000256E90D0250E2A18D8B40AD083C0D9FF0B
:100D000084C0DAFF2AC0DFFF0001834B842B82D02E
:100D1000000E266E85C0F6FF86C0F7FF0001854BEA
:100D2000862B0800F5CF2AF02A50000AD8B47FD0CD
:100D3000640AD8B403D00D0AD8A46CD024C0D9FF5B
:100D400025C0DAFFDECF28F0DDCF29F0020E242601
:100D5000000E252229AE06D0030E2612286C291E6D
:100D6000D8B0292A010E2A6E050E2A18D8B412D03E
:100D70002A50020D010EF324F66E080EF420F76ED1
:100D80000900F550285C0900F5502958D8A002D078
:100D90002A2AEAD726C023F0030E2316D8B409D096
:100DA00083C0D9FF84C0DAFF2D0EDF6E0001834BB4
:100DB000842B2AC027F02AD02750020D010EF324DD
:100DC000F66E080EF420F76E0900F5CF19F00A0050
:100DD000F5CF1AF028C017F029C018F0ECEC0AF093
:100DE00017C01EF018C01FF0000E216E0A0E206EF4
:100DF0008AEC0BF01E50300F2A6E83C0D9FF84C0DE
:100E0000DAFF2AC0DFFF0001834B842B2706272847
:100E1000D8A4D2D785C0F6FF86C0F7FF0001854B66
:100E2000862B0800F5CF2AF02A50D8A463D783C0B8
:100E3000D9FF84C0DAFF000EDF6E12000001672BBD
:100E4000090E000167651200000E0001676F0001C6
:100E5000662B050E000166651200000E0001666F2C
:100E60000001642B010E486E090E0001646512003A
:100E7000000E0001646F0001632B050E0001636525
:100E80001200000E0001636F0001612B090E0001CA
:100E9000616505D0000E0001616F0001602B020E3C
:100EA00000016019D8A41200030E00016165120050
:100EB000000E0001606F000E0001616F00016A2BDF
:100EC0000001702B090E00016A6505D0000E0001BB
:100ED0006A6F0001692BFF0E216EFF0E226E00016A
:100EE0007151236E246A2150232622502422990E08
:100EF0002324D96E000E2420DA6E00017051DE5CCE
:100F0000D8B01200010E00016A6F000E0001696F77
:100F10000001712B00016D2B090E00016D6505D0DC
:100F2000000E00016D6F00016C2B0B0E000171654E
:100F30001200010E00016D6F000E00016C6F010EBA
:100F40000001716F0001724B732B72C01DF073C0F2
:100F50001EF064EC0AF00009D8B404D01D0E0001A4
:100F60009A6F12001C0E00019A6F12000F0EC16ED4
:100F7000000E936E000E956E120EAF6E900EAB6E5D
:100F8000200EAC6E948094829484949C948E9E9A4D
:100F90009F9A9D8AF28C020E0001606F030E000181
:100FA000616F050E0001636F090E0001646F050E8D
:100FB0000001666F000E0001676F000E0001686F90
:100FC000030E0001696F010E00016A6F010E00013E
:100FD0006C6F020E00016D6F000E00016F6F070E47
:100FE0000001736FE20E726F1F0E0001706F0B0E27
:100FF0000001716F000E2F6E000E306E000E326E0B
:10100000010E336E000E346ED59EF28AF294D59C9A
:10101000D596D580D592D584D59A670ED76E6A0EAF
:10102000D66ED58EF28EF28CD7EC0CF067EC0BF00E
:10103000000E82B0010E0001986F0001985100016E
:10104000D8B411D0B40EE6EC0CF0010E87EC05F02C
:1010500005D0000E82B0010E0001986F000198517A
:101060000001D8A4F6D73B50D8B407D0000E87ECC7
:1010700005F01EEC07F0000E3B6E020E3518D8A4EA
:10108000D5D766EC09F0D2D72268236819501A1018
:10109000D8A405D0221C176E231C186E1200000E57
:1010A0001F6E17C0D9FF18C0DAFFDF501B6E1B5030
:1010B000206E216A174A182A070E1F6401D028D013
:1010C000010E20141B6E000E21141C6E010E221442
:1010D0001D6E000E23141E6E1B501D1A1C501E1A6E
:1010E0001D501E10D8B40CD0D89023301C6E223066
:1010F0001B6E080E1B18226E840E1C18236E03D064
:10110000D890233222321F2AD89021322032D4D7CD
:101110001906D8A01A0619501A10D8A4C0D7221E32
:10112000231E22C020F023C021F020C01BF021C0CC
:101130001CF01CC01BF01C6A1B5022C01DF023C0F9
:101140001EF01DC01EF01D6A1D10226E1E50236E63
:1011500022C017F023C018F0120002D01D4A1E2A28
:101160001DC0D9FF1EC0DAFF200EDE18D8B4F6D796
:101170001DC0D9FF1EC0DAFF090EDE18D8B4EED7A5
:10118000000E236E000E226E000E216E1DC0D9FFD0
:101190001EC0DAFF2D0EDE18D8A402D0212A24D0DA
:1011A0001DC0D9FF1EC0DAFF2B0EDE18D8A41ED03A
:1011B0001BD022C017F023C018F0000E1A6E0A0EC2
:1011C000196EA6EC0CF01DC0D9FF1EC0DAFFDF506F
:1011D0001F6E206A17501F2618502022D00E1F2481
:1011E000226EFF0E2020236E1D4A1E2A1DC0D9FF2D
:1011F0001EC0DAFFDF50B9EC0CF0D8B0DAD72150BE
:10120000D8B40DD022C01FF023C020F01F1E201E16
:101210001F4A202A1FC01DF020C01EF0120022C04D
:101220001DF023C01EF012001C6EF00E8116F00E91
:101230009316939C939A93988A9C8A9A8A9816EC10
:101240000DF0300EEAEC0BF0050EE6EC0CF0300E73
:10125000EAEC0BF0010EE6EC0CF0320EEAEC0BF0CF
:1012600026EC0CF00009D8A4FBD726EC0CF0000902
:10127000D8A4FBD71C50EAEC0BF026EC0CF00009CC
:10128000D8A4FBD7080EEAEC0BF026EC0CF0000912
:10129000D8A4FBD70F0EEAEC0BF026EC0CF00009FB
:1012A000D8A4FBD7010EEAEC0BF026EC0CF00009F9
:1012B000D8A4FBD7040EEAEC0BF026EC0CF00009E6
:1012C000D8A4FBD7800E15EC0BF01200000E82B2F2
:1012D000010E386E000E82B4010E376E3850D8B44D
:1012E00020D0B40EE6EC0CF0302A090E306403D0A6
:1012F000000E306E2F2A020E2F18D8A407D0030E2E
:10130000306404D0000E306E000E2F6E000E87EC9D
:1013100005F004D0000E82B2010E386E3850D8A409
:10132000F9D73750D8B41200B40EE6EC0CF0332ADB
:10133000090E336403D0000E336E322A050E3218C4
:10134000D8A407D0090E336404D0000E336E000E0B
:10135000326E000E87EC05F004D0000E82B4010E50
:10136000376E3750D8B41200F8D7000E1C6E1AAE84
:1013700006D0196C1A1ED8B01A2A010E1C6E18AEAF
:1013800006D0176C181ED8B0182A010E1C1A000EB1
:101390001E6E000E1D6E19501A10D8B41CD0010E0E
:1013A0001B6E04D0D89019361A361B2A1AAEFAD7FB
:1013B000D8901D361E361950175C1A501858D8A0F0
:1013C00005D01950175E1A50185A1D80D8901A323D
:1013D00019321B2EEDD71C50D8B404D01D6C1E1E24
:1013E000D8B01E2A1DC017F01EC018F01200000E43
:1013F0001C6E18AE06D0176C181ED8B0182A010E35
:101400001C6E1AAE04D0196C1A1ED8B01A2A1950C4
:101410001A10D8B418D0010E1B6E04D0D89019360B
:101420001A361B2A1AAEFAD71950175C1A501858D8
:10143000D8A004D01950175E1A50185AD8901A32F2
:1014400019321B2EF1D71C50D8B404D0176C181EBB
:10145000D8B0182A17C017F018C018F01200000EE4
:101460002A6E3E0E176E000E186E000E1A6E050ED6
:10147000196E44EC08F017C02BF018C02CF02C505B
:10148000266E276A2B50286E296A4350246E256ADF
:101490002650241810E127502518D8A40CD0445009
:1014A000246E256A2850241806E129502518D8A44E
:1014B00002D0010E2A6E2A04D8A403D0040E3D6E79
:1014C0001200050E3D6E1200030E1D141F6E000E5D
:1014D0001E14206E1F502010D8A422D01DC017F05B
:1014E0001EC018F0000E1A6E640E196EF7EC09F0AB
:1014F00017501810D8B402D0010E12001DC017F0FA
:101500001EC018F0010E1A6E900E196EF7EC09F05D
:1015100017501810D8B402D0000E1200010E12009D
:10152000000E120019D026EC0CF00009D8A4FBD74D
:101530002DC0F6FF2EC0F7FFF86A070EF76403D040
:101540000800F55005D0F6CFE1FFF7CFE2FFE750F6
:10155000CBEC0BF02D4A2E2A2DC0F6FF2EC0F7FF44
:10156000F86A070EF76403D00800F55005D0F6CFEF
:10157000E1FFF7CFE2FFE7500009D8B41200D3D75C
:10158000E20EF66E190EF76E000EF86E00EE99F090
:1015900010EE12F00900F5CFEEFFE550E150FAE150
:1015A0004C0EF66E1A0EF76E000EF86E0900F5CFAF
:1015B00048F000EE60F0230EEE6AE806FDE100EE72
:1015C0002FF0190EEE6AE806FDE149904992000EEF
:1015D000F86E0001B6EF07F0000E1D6E000E1C6ED7
:1015E00019501A10D8B41CD0010E1B6E04D0D8901C
:1015F00019361A361B2A1AAEFAD7D8901C361D3661
:101600001950175C1A501858D8A005D01950175EF9
:101610001A50185A1C80D8901A3219321B2EEDD746
:101620001CC017F01DC018F012001B6EF00E9316B0
:10163000F00E81161B50186E196A188E040E1A6E61
:101640001934193218321A2EFBD718500F0B811289
:101650008A9C8A9A1AEC0DF08A881AEC0DF08A9806
:10166000F00E81161B500F0B81121AEC0DF08A88B8
:101670001AEC0DF08A980F0E93121200056EF00E00
:101680009316F00E81160550026E036A028E040E48
:10169000046E033403320232042EFBD702500F0BC8
:1016A00081128A9C8A9A22EC0DF08A8822EC0DF035
:1016B0008A98F00E811605500F0B811222EC0DF066
:1016C0008A8822EC0DF08A980F0E9312120011D026
:1016D0002FEC0AF0120033EC04F0120043EC0CF093
:1016E0001200050EC8EC0CF012000F0EC8EC0CF046
:1016F00012003D50010AD8B4EBD7030AD8B4EBD797
:10170000010AD8B4EBD7070AD8B4EBD7010AD8A49A
:101710001200EBD720502110D8B418D0010E226E41
:1017200004D0D89020362136222A21AEFAD7205074
:101730001E5C21501F58D8A004D020501E5E21509E
:101740001F5AD89021322032222EF1D71EC01EF00F
:101750001FC01FF012001FC025F020C026F01DC0C2
:1017600023F01EC024F00ED025C0D9FF26C0DAFF1A
:1017700023C0E1FF24C0E2FFDFCFE7FF254A262A8E
:10178000234A242A2106D8A022062128EDE1222876
:10179000D8B41200E9D7186EF00E9316F00E811629
:1017A00018380F0B0F0B81128A8A8A9C1AEC0DF0E5
:1017B0008A881AEC0DF08A98F00E811618500F0BDB
:1017C00081121AEC0DF08A881AEC0DF08A980F0E2F
:1017D00093121200186EF00E9316F00E8116183840
:1017E0000F0B0F0B81128A9C8A9A1AEC0DF08A88D3
:1017F0001AEC0DF08A98F00E811618500F0B81121A
:101800001AEC0DF08A881AEC0DF08A980F0E9312DC
:10181000120017C01BF018C01CF002D01B4A1C2A73
:101820001BC0D9FF1CC0DAFFDF50D8A4F7D717C000
:1018300019F018C01AF0191E1A1E194A1A2A1B503C
:101840001924176E1C501A20186E12008A8C8A9A5E
:101850001AEC0DF08A881AEC0DF081A60AD08A984D
:101860001AEC0DF08A881AEC0DF08A988A9C010E09
:1018700012008A981AEC0DF08A881AEC0DF08A98FA
:101880008A9C000E1200000E186E000E176E18BE15
:1018900006D0185011E1070E175CD8B00DD09EA8E5
:1018A000FED77C0E1724D96E000E1820DA6EDF509A
:1018B000AD6E174A182AEBD7000E3D6E1200485045
:1018C000D8B412002F5000016019D8A41200305073
:1018D00000016119D8A41200325000016319D8A484
:1018E0001200335000016419D8A41200010E396EA1
:1018F0001200930E0001836F000E0001846F390EF9
:101900000001856F080E0001866F2BC087F02CC088
:1019100088F075EC06F0930E2B6E000E2C6E120004
:101920007C0E176E000E186E000E1A6E050E196EE4
:1019300044EC08F017C024F018C025F02550000131
:10194000816F24C082F0030E3D6E12001750190201
:10195000F3CF1BF0F4CF1CF017501A02F3501C26E3
:1019600018501902F3501C261BC017F01CC018F0A9
:101970001200196E000E186E3A0E196005D02F0E67
:10198000196402D0010E186E18C017F0173012003B
:10199000176E9EA8FED717C0ADFF050E1718D8A466
:1019A00003D0020E3D6E1200000E3D6E1200280E96
:1019B00014EC09F026EC0CF00009D8A4FBD7060EB5
:1019C000EAEC0BF00C0EEAEC0BF01200186E0D0EA8
:1019D000176EFC0EE82EFED7172EFCD7182EF7D761
:1019E00012001F1C1F1E1F1E1F1F1E1F1E1F303117
:1019F0002E303000176EC80E00D0E82EFDD7172EFF
:101A0000FAD71200176E030EE82EFED700F0172E3D
:101A1000FAD71200016E030EE82EFED700F0012E59
:101A2000FAD71200000E15EC0BF01200B40EFAEC0F
:101A30000CF01200780E02EC0DF01200000E3EECDD
:0D1A40000BF01200780E0AEC0DF012000100
:020000040020DA
:08000000FFFFFFFFFFFFFFFF00
:020000040030CA
:0E00000000051F1EFF8185FF0FC00FE00F409F
:00000001FF
