:040000007BEF00F0A2
:100018004980D8CF06F0E8CF07F0E0CF08F0FACF54
:1000280009F0FBCF0AF0E9CF0BF0EACF0CF0E1CFF3
:100038000DF0E2CF0EF0D9CF0FF0DACF10F0F3CFFA
:1000480011F0F4CF12F0F6CF13F0F7CF14F0F8CF89
:1000580015F0F5CF16F0F2A40DD02D2A010E2D645F
:1000680004D0010E2E6E000E2D6E670ED76E6A0E2E
:10007800D66EF2949EAA17D09EAAFED72F50010DD5
:10008800380EF324D96E000EF420DA6EAECFDFFFFF
:100098002F2A060E2F6407D016EC0DF09E9A000E3C
:1000A8002F6E010E306E16C0F5FF15C0F8FF14C094
:1000B800F7FF13C0F6FF12C0F4FF11C0F3FF10C022
:1000C800DAFF0FC0D9FF0EC0E2FF0DC0E1FF0CC080
:1000D800EAFF0BC0E9FF0AC0FBFF09C0FAFF08C02E
:1000E800E0FF07C0E8FF06C0D8FF49901000AAEF5C
:0200F8000AF00C
:100800000001000A006400E80310272020202020B7
:10081000414C41524D4520202020200044657370FA
:1008200065727461646F722020202020005665720A
:1008300073616F3A200020202020202000486F7232
:0F084000613A2000446174613A2000256900008C
:1008500045D138C031F039C032F060D094C033F0A7
:1008600097C034F059D060C045F061C046F0450EE5
:100870001D6E000E1E6E5EEC08F01D50336E63C0E0
:1008800045F064C046F0450E1D6E000E1E6E5EEC17
:1008900008F01D50346E66C045F067C046F0450E46
:1008A0001D6E000E1E6E5EEC08F01D501BD069C060
:1008B00045F06AC046F0450E1D6E000E1E6E5EECE1
:1008C00008F01D50336E6CC045F06DC046F0450E0B
:1008D0001D6E000E1E6E5EEC08F01D50346E0001A1
:1008E0007251300F356E01D13FC045F040C046F027
:1008F000450E1D6E000E1E6E5EEC08F01D50336E30
:1009000042C045F043C046F0450E1D6E000E1E6EFF
:100910005EEC08F01D50346E3568E7D03950000A9F
:10092000D8B49CD7010AD8B49ED7030AD8B4BFD78D
:10093000010AD8B4D9D7D9D0310E1D6E000E1E6E63
:10094000380E1F6E000E206E380E176E000E186ED9
:1009500012EC0CF017C021F018C022F095EC0BF04F
:10096000AFD03A50300F0001946F3B50300F000170
:10097000976FBBD03AC017F0186A000E1A6E0A0EB5
:10098000196E66EC09F01750300F0001696F3AC01C
:1009900017F0186A000E1A6E0A0E196EE8EC09F0CC
:1009A0001750300F00016A6F3BC017F0186A000E35
:1009B0001A6E0A0E196E66EC09F01750300F00011E
:1009C0006C6F3BC017F0186A000E1A6E0A0E196E93
:1009D000E8EC09F01750300F00016D6FD00E3C2489
:1009E0000001726F0001736B070E73237ED03AC053
:1009F00017F0186A000E1A6E0A0E196E66EC09F0EE
:100A00001750300F0001606F3AC017F0186A000EDF
:100A10001A6E0A0E196EE8EC09F01750300F00013B
:100A2000616F3BC017F0186A000E1A6E0A0E196E3D
:100A300066EC09F01750300F0001636F3BC017F0F0
:100A4000186A000E1A6E0A0E196EE8EC09F01750BB
:100A5000300F0001646F49D03AC017F0186A000ED9
:100A60001A6E0A0E196E66EC09F01750300F3F6EC1
:100A70003AC017F0186A000E1A6E0A0E196EE8ECEA
:100A800009F01750300F406E3BC017F0186A000E87
:100A90001A6E0A0E196E66EC09F01750300F426E8E
:100AA0003BC017F0186A000E1A6E0A0E196EE8ECB9
:100AB00009F01750300F436E000E69EC07F015D0A7
:100AC0003950000AD8B44DD7010AD8B453D7030A15
:100AD000D8B48DD7010AD8B4BFD707D03850010A8F
:100AE000D8B4B7D6030AD8B427D7B6EC0CF01200A6
:100AF000780E00017A6F000E00017B6FA1D0250EE9
:100B000000018019D8B40AD074C0D9FF75C0DAFFCB
:100B100080C0DFFF0001744B752B92D0000E0001E6
:100B20007C6F76C0F6FF77C0F7FF0001764B772B1E
:100B30000800F5CF80F000018051000AD8B48ED0B3
:100B4000640AD8B403D00D0AD8A47AD07AC0D9FFE9
:100B50007BC0DAFFDECF7EF0DDCF7FF0020E00013A
:100B60007A27000E7B2300017FAF08D0030E00011F
:100B70007C1300017E6D7F1FD8B07F2B010E00011A
:100B8000806F050E00018019D8B416D00001805185
:100B9000020D010EF324F66E080EF420F76E090024
:100BA000F55000017E5D0900F55000017F59D8A085
:100BB00003D00001802BE5D77CC023F0030E231661
:100BC000D8B409D074C0D9FF75C0DAFF2D0EDF6E1E
:100BD0000001744B752B80C07DF02CD000017D513D
:100BE000020D010EF324F66E080EF420F76E0900D4
:100BF000F5CF19F00A00F5CF1AF07EC017F07FC0CC
:100C000018F0D6EC0AF017C01EF018C01FF0000E46
:100C1000216E0A0E206E74EC0BF01E50300F000196
:100C2000806F74C0D9FF75C0DAFF80C0DFFF00019C
:100C3000744B752B00017D0700017D29D8A4CED708
:100C400076C0F6FF77C0F7FF0001764B772B0800E0
:100C5000F5CF80F000018051D8A451D774C0D9FFDE
:100C600075C0DAFF000EDF6E12000F0EC16E000EAF
:100C7000936E000E956E120EAF6E900EAB6E200E40
:100C8000AC6E948094829484949C948E9E9A9F9A45
:100C90009D8AF28C320E0001606F330E0001616F8D
:100CA0003A0E0001626F350E0001636F390E0001CC
:100CB000646F3A0E0001656F350E0001666F300EED
:100CC0000001676F000E0001686F330E0001696F4D
:100CD000310E00016A6F2F0E00016B6F310E0001A3
:100CE0006C6F320E00016D6F2F0E00016E6F000EE3
:100CF00000016F6F070E0001736FE20E726F1F0E1F
:100D00000001706F0B0E0001716F300E3F6E300EE0
:100D1000406E3A0E416E300E426E310E436E000E42
:100D2000446ED59EF28AF294D59CD596D580D59204
:100D3000D584D59A670ED76E6A0ED66ED58EF28E92
:100D4000F28CFCEC0CF051EC0BF0000E82B0010EBA
:100D50000001866F000186510001D8B411D0B40E95
:100D60000BEC0DF0010E69EC07F005D0000E82B01F
:100D7000010E0001866F000186510001D8A4F6D74C
:100D80002E50D8B407D0000E69EC07F0D1EC06F075
:100D9000000E2E6E020E2818D8A4D5D717EC09F035
:100DA000D2D70001672B390E000167651200300EA3
:100DB0000001676F0001662B350E000166651200A9
:100DC000300E0001666F0001642B010E486E390E73
:100DD000000164651200300E0001646F0001632B96
:100DE000350E000163651200300E0001636F0001D3
:100DF000612B390E0001616505D0300E0001616F75
:100E00000001602B320E00016019D8A41200330ECD
:100E1000000161651200300E0001606F300E0001AC
:100E2000616F00016A2B0001702B390E00016A65A9
:100E300005D0000E00016A6F0001692BFF0E216EC4
:100E4000FF0E226E00017151236E246A2150232669
:100E500022502422870E2324D96E000E2420DA6E1D
:100E600000017051DE5CD8B01200310E00016A6FD3
:100E7000300E0001696F0001712B00016D2B390EDE
:100E800000016D6505D0300E00016D6F00016C2B07
:100E90000B0E000171651200310E00016D6F300EF6
:100EA00000016C6F010E0001716F0001724B732B1A
:100EB00072C01DF073C01EF020EC0AF00009D8B417
:100EC00004D01D0E0001886F12001C0E0001886FF7
:100ED00012000001856F00018505D8A47BD0282A67
:100EE000020E286477D0000E286E74D0000EFFEC3E
:100EF0000AF01C0E266E080E276E4EEC0AF0400E0D
:100F0000FFEC0AF02D0E266E080E276E4EEC0AF04E
:100F1000930E266E000E276E4EEC0AF01200000EA5
:100F2000FFEC0AF03D0E266E080E276E4EEC0AF01E
:100F3000600E266E000E276E4EEC0AF0400EFFEC9F
:100F40000AF0440E266E080E276E4EEC0AF0690E6B
:100F5000266E000E276E4EEC0AF072C024F073C0AD
:100F600025F09FEC0CF024C026F025C027F04EECB5
:100F70000AF085EC0CF02C50D8B412008380292A9A
:100F8000050E29641200000E296E000E2C6E83904F
:100F9000000E486E1200000EFFEC0AF00B0E266EDB
:100FA000080E276E4EEC0AF0400EFFEC0AF0370EEA
:100FB000266E080E276E4EEC0AF03F0E266E000ECF
:100FC000276E4EEC0AF0360E266E080E276E4EEC9B
:100FD0000AF012002850000AD8B488D7010AD8B401
:100FE0009ED7030AD8A41200D6D7226823681950C6
:100FF0001A10D8A405D0221C176E231C186E1200DC
:10100000000E1F6E17C0D9FF18C0DAFFDF501B6E2D
:101010001B50206E216A174A182A070E1F6401D040
:1010200028D0010E20141B6E000E21141C6E010E20
:1010300022141D6E000E23141E6E1B501D1A1C5010
:101040001E1A1D501E10D8B40CD0D89023301C6E20
:1010500022301B6E080E1B18226E840E1C18236E85
:1010600003D0D890233222321F2AD8902132203246
:10107000D4D71906D8A01A0619501A10D8A4C0D768
:10108000221E231E22C020F023C021F020C01BF00E
:1010900021C01CF01CC01BF01C6A1B5022C01DF09C
:1010A00023C01EF01DC01EF01D6A1D10226E1E50B2
:1010B000236E22C017F023C018F0120002D01D4A80
:1010C0001E2A1DC0D9FF1EC0DAFF200EDE18D8B4BC
:1010D000F6D71DC0D9FF1EC0DAFF090EDE18D8B43E
:1010E000EED7000E236E000E226E000E216E1DC084
:1010F000D9FF1EC0DAFF2D0EDE18D8A402D0212A97
:1011000024D01DC0D9FF1EC0DAFF2B0EDE18D8A4D4
:101110001ED01BD022C017F023C018F0000E1A6E8C
:101120000A0E196ECBEC0CF01DC0D9FF1EC0DAFF01
:10113000DF501F6E206A17501F2618502022D00E35
:101140001F24226EFF0E2020236E1D4A1E2A1DC062
:10115000D9FF1EC0DAFFDF50DEEC0CF0D8B0DAD7D2
:101160002150D8B40DD022C01FF023C020F01F1E84
:10117000201E1F4A202A1FC01DF020C01EF0120092
:1011800022C01DF023C01EF012001C6EF00E81164E
:10119000F00E9316939C939A93988A9C8A9A8A98B5
:1011A00041EC0DF0300ED4EC0BF0050E0BEC0DF015
:1011B000300ED4EC0BF0010E0BEC0DF0320ED4EC33
:1011C0000BF02FEC0CF00009D8A4FBD72FEC0CF09F
:1011D0000009D8A4FBD71C50D4EC0BF02FEC0CF07A
:1011E0000009D8A4FBD7080ED4EC0BF02FEC0CF0C0
:1011F0000009D8A4FBD70F0ED4EC0BF02FEC0CF0A9
:101200000009D8A4FBD7010ED4EC0BF02FEC0CF0A6
:101210000009D8A4FBD7040ED4EC0BF02FEC0CF093
:101220000009D8A4FBD7800EFFEC0AF01200000ED4
:1012300082B2010E2B6E000E82B4010E2A6E2B506C
:10124000D8B420D0B40E0BEC0DF0402A390E406417
:1012500003D0300E406E3F2A320E3F18D8A407D07C
:10126000330E406404D0300E406E300E3F6E000EE0
:1012700069EC07F004D0000E82B2010E2B6E2B50E9
:10128000D8A4F9D72A50D8B41200B40E0BEC0DF044
:10129000432A390E436403D0300E436E422A350E82
:1012A0004218D8A407D0390E436404D0300E436EE0
:1012B000300E426E000E69EC07F004D0000E82B4CE
:1012C000010E2A6E2A50D8B41200F8D7000E1C6EF8
:1012D0001AAE06D0196C1A1ED8B01A2A010E1C6E4E
:1012E00018AE06D0176C181ED8B0182A010E1C1A9A
:1012F000000E1E6E000E1D6E19501A10D8B41CD0B0
:10130000010E1B6E04D0D89019361A361B2A1AAE5D
:10131000FAD7D8901D361E361950175C1A50185837
:10132000D8A005D01950175E1A50185A1D80D890B1
:101330001A3219321B2EEDD71C50D8B404D01D6CB4
:101340001E1ED8B01E2A1DC017F01EC018F01200B5
:10135000000E0001786F380E176E000E186E000E2A
:101360001A6E050E196EF5EC07F017C079F018C06B
:101370007AF000017A510001746F756B00017951A8
:101380000001766F776B3D50246E256A0001745121
:10139000241814E1000175512518D8A40FD03E502F
:1013A000246E256A00017651241808E10001775166
:1013B0002518D8A403D0010E0001786F000178052C
:1013C000D8A403D0040E306E1200050E306E120049
:1013D000000E1C6E18AE06D0176C181ED8B0182A56
:1013E000010E1C6E1AAE04D0196C1A1ED8B01A2A3F
:1013F00019501A10D8B418D0010E1B6E04D0D89012
:1014000019361A361B2A1AAEFAD71950175C1A5019
:101410001858D8A004D01950175E1A50185AD890EE
:101420001A3219321B2EF1D71C50D8B404D0176CC5
:10143000181ED8B0182A17C017F018C018F01200DC
:10144000030E1D141F6E000E1E14206E1F50201060
:10145000D8A422D01DC017F01EC018F0000E1A6EBE
:10146000640E196EE8EC09F017501810D8B402D0C9
:10147000010E12001DC017F01EC018F0010E1A6EEA
:10148000900E196EE8EC09F017501810D8B402D07D
:10149000000E1200010E1200000E120019D02FECE7
:1014A0000CF00009D8A4FBD726C0F6FF27C0F7FF31
:1014B000F86A070EF76403D00800F55005D0F6CFA0
:1014C000E1FFF7CFE2FFE750B5EC0BF0264A272A01
:1014D00026C0F6FF27C0F7FFF86A070EF76403D0AF
:1014E0000800F55005D0F6CFE1FFF7CFE2FFE75057
:1014F0000009D8B41200D3D719D04CEC0CF0000975
:10150000D8A4FBD703C0F6FF04C0F7FFF86A070EA4
:10151000F76403D00800F55005D0F6CFE1FFF7CF10
:10152000E2FFE750F3EC0BF0034A042A03C0F6FF96
:1015300004C0F7FFF86A070EF76403D00800F550FF
:1015400005D0F6CFE1FFF7CFE2FFE7500009D8B4AE
:101550001200D3D7400EF66E1A0EF76E000EF86E1C
:1015600000EE87F010EE12F00900F5CFEEFFE55027
:10157000E150FAE19A0EF66E1A0EF76E000EF86E52
:101580000900F5CF48F000EE60F0140EEE6AE806B0
:10159000FDE100EE28F0200EEE6AE806FDE149903C
:1015A0004992000EF86E000135EF06F0000E1D6E38
:1015B000000E1C6E19501A10D8B41CD0010E1B6EF0
:1015C00004D0D89019361A361B2A1AAEFAD7D890FA
:1015D0001C361D361950175C1A501858D8A005D063
:1015E0001950175E1A50185A1C80D8901A321932A6
:1015F0001B2EEDD71CC017F01DC018F012001B6E7B
:10160000F00E9316F00E81161B50186E196A188E84
:10161000040E1A6E1934193218321A2EFBD71850CC
:101620000F0B81128A9C8A9A45EC0DF08A8845EC52
:101630000DF08A98F00E81161B500F0B811245ECAD
:101640000DF08A8845EC0DF08A980F0E9312120067
:10165000056EF00E9316F00E81160550026E036AA9
:10166000028E040E046E033403320232042EFBD7C2
:1016700002500F0B81128A9C8A9A49EC0DF08A88DD
:1016800049EC0DF08A98F00E811605500F0B81126F
:1016900049EC0DF08A8849EC0DF08A980F0E9312F0
:1016A000120011D0A8EC09F0120028EC04F012008E
:1016B00069EC0CF01200050EEDEC0CF012000F0EB0
:1016C000EDEC0CF012003050010AD8B4EBD7030A4D
:1016D000D8B4EBD7010AD8B4EBD7070AD8B4EBD704
:1016E000010AD8A41200EBD720502110D8B418D08A
:1016F000010E226E04D0D89020362136222A21AE47
:10170000FAD720501E5C21501F58D8A004D020507A
:101710001E5E21501F5AD89021322032222EF1D73E
:101720001EC01EF01FC01FF012001FC025F020C0F9
:1017300026F01DC023F01EC024F00ED025C0D9FF16
:1017400026C0DAFF23C0E1FF24C0E2FFDFCFE7FFBE
:10175000254A262A234A242A2106D8A022062128FF
:10176000EDE12228D8B41200E9D7186EF00E9316D6
:10177000F00E811618380F0B0F0B81128A8A8A9C83
:1017800045EC0DF08A8845EC0DF08A98F00E811634
:1017900018500F0B811245EC0DF08A8845EC0DF0C6
:1017A0008A980F0E93121200186EF00E9316F00E18
:1017B000811618380F0B0F0B81128A9C8A9A45EC00
:1017C0000DF08A8845EC0DF08A98F00E81161850BD
:1017D0000F0B811245EC0DF08A8845EC0DF08A98CC
:1017E0000F0E93121200026EF00E9316F00E811679
:1017F00002380F0B0F0B81128A8A8A9C49EC0DF07C
:101800008A8849EC0DF08A98F00E811602500F0B71
:10181000811249EC0DF08A8849EC0DF08A980F0E80
:101820009312120017C01BF018C01CF002D01B4A04
:101830001C2A1BC0D9FF1CC0DAFFDF50D8A4F7D781
:1018400017C019F018C01AF0191E1A1E194A1A2AC0
:101850001B501924176E1C501A20186E12008A8C07
:101860008A9A45EC0DF08A8845EC0DF081A60AD0E5
:101870008A9845EC0DF08A8845EC0DF08A988A9C90
:10188000010E12008A9845EC0DF08A8845EC0DF0A7
:101890008A988A9C000E12008A8C8A9A49EC0DF074
:1018A0008A8849EC0DF081A60AD08A9849EC0DF09F
:1018B0008A8849EC0DF08A988A9C010E12008A9859
:1018C00049EC0DF08A8849EC0DF08A988A9C000E4C
:1018D0001200000E186E000E176E18BE06D01850BB
:1018E00011E1070E175CD8B00DD09EA8FED7310EBF
:1018F0001724D96E000E1820DA6EDF50AD6E174A2D
:10190000182AEBD7000E306E12004850D8B41200DF
:101910003F5000016019D8A4120040500001611925
:10192000D8A41200425000016319D8A412004350F9
:1019300000016419D8A41200010E2C6E1200810E51
:101940000001746F000E0001756F4B0E0001766F81
:10195000080E0001776F24C078F025C079F078EC8C
:1019600005F0810E246E000E256E1200310E176EEA
:10197000000E186E000E1A6E050E196EF5EC07F0CB
:1019800017C024F018C025F02550366E24C037F05B
:10199000030E306E120017501902F3CF1BF0F4CF74
:1019A0001CF017501A02F3501C2618501902F3505D
:1019B0001C261BC017F01CC018F01200196E000E78
:1019C000186E3A0E196005D02F0E196402D0010E60
:1019D000186E18C017F017301200176E9EA8FED7A9
:1019E00017C0ADFF050E1718D8A403D0020E306E35
:1019F0001200000E306E1200280EC5EC08F02FEC1D
:101A00000CF00009D8A4FBD7060ED4EC0BF00C0E9A
:101A1000D4EC0BF01200186E0D0E176EFC0EE82EB3
:101A2000FED7172EFCD7182EF7D71200000E28EC81
:101A30000BF0380E036E000E046E7CEC0AF0120000
:101A40001F1C1F1E1F1E1F1F1E1F1E1F30312E306A
:101A50003000176EC80E00D0E82EFDD7172EFAD72B
:101A60001200176E030EE82EFED700F0172EFAD7DD
:101A70001200016E030EE82EFED700F0012EFAD7F9
:101A80001200B40E29EC0DF01200780E31EC0DF0BE
:0B1A90001200780E39EC0DF01200017E
:020000040020DA
:08000000FFFFFFFFFFFFFFFF00
:020000040030CA
:0E00000000051F1EFF8185FF0FC00FE00F409F
:00000001FF
